:0400000072EF00F0AB
:100008004782FACF03F0FBCF04F0E9CF05F0EACF3F
:1000180006F0E1CF07F0E2CF08F0D9CF09F0DACF48
:100028000AF0F3CF0BF0F4CF0CF0F6CF0DF0F7CFCA
:100038000EF0F8CF0FF0F5CF10F047C011F048C020
:1000480012F049C013F04AC014F0F2AC21D09DB8A8
:100058009EA80AD001D81CD00500FA6E3950FD6E52
:100068003A50FE6E3B500CD09DBA9EAA0CD001D8D7
:100078000FD00500FA6E3650FD6E3750FE6E3850C0
:10008800FF6EFA5012009DB09EA002D023EC02F041
:1000980014C04AF013C049F012C048F011C047F02C
:1000A80010C0F5FF0FC0F8FF0EC0F7FF0DC0F6FF38
:1000B8000CC0F4FF0BC0F3FF0AC0DAFF09C0D9FF78
:1000C80008C0E2FF07C0E1FF06C0EAFF05C0E9FF7C
:1000D80004C0FBFF03C0FAFF47921100DFEF01F0F5
:1000E800000E156E010E166E000E186E000E176EBD
:1000F800000E1A6E0A0E196E0DEC02F0000E296E33
:10010800000E286E29BE06D029502DE10A0E285C63
:10011800D8B029D0000E2B6E000E2A6E2BBE06D04A
:100128002B501EE10A0E2A5CD8B01AD028C015F050
:1001380029C016F0000E186E0A0E176E4FEC02F06A
:100148002A5015262B501622640E1524D96E010E3E
:100158001620DA6E2A50300FDF6E2A4A2B2ADED795
:10016800284A292ACFD7F4EC00F01200000E196EA5
:10017800000E186E19BE08D0195031E1080E185C2F
:10018800D8B0120001D000F0A3EC02F00009D8B4F6
:10019800FAD71828ACEC02F0000E176E000E166E97
:1001A80017BE08D0175013E10A0E165CD8B00FD04E
:1001B80001D000F0A3EC02F00009D8B4FAD74650F9
:1001C800300FACEC02F0164A172AEAD700F0A3EC7D
:1001D80002F00009D8B4FAD7184A192ACBD7120066
:1001E800000E276E000E266E27BE06D027502DE182
:1001F8000A0E265CD8B0120026C015F027C016F0EB
:10020800000E186E0A0E176E4FEC02F0000E152441
:100218001B6E010E16201C6E26C015F027C016F0A6
:10022800000E186E0A0E176E4FEC02F0640E1524BD
:100238001D6E010E16201E6E000E206E0A0E1F6E19
:100248007DEC01F0264A272ACFD712009D9A720E1C
:10025800156E040E166E000E176EC2EC02F09D9815
:10026800EC0E156E030E166E000E176EBBEC02F048
:10027800080E7E6E900EAC6E240EAD6E440EB06EFF
:10028800000E7F6E000E456E000E446E400E3E6EF0
:10029800000E436E000E426E000E416E9D8A1200E3
:1002A80081EC02F0520E326E2B0E316E000EE82EEB
:1002B800FED7312EFCD7322EFAD700D074EC00F0DE
:1002C8008A8A8A9ABAEC00F0040E326E400E316EB9
:1002D800260EE82EFED7312EFCD7322EFAD700D0C4
:1002E800462A4604316E080E3164EAD7000E466E7F
:1002F800E7D71DC023F01EC024F01BC021F01CC08E
:1003080022F010D023C0D9FF24C0DAFFDF50256EB9
:10031800234A242A21C0D9FF22C0DAFF25C0DFFFE3
:10032800214A222A1F06D8A020061F28EBE12028F0
:10033800D8B41200E7D7000E896E000E8A6E000E40
:100348008B6EEF0E926EDF0E936EBF0E946E000EE4
:100358000F01486F000E496FF18E000E426F000EBC
:10036800416F000E406F0F0E0E01F76F100EF86F01
:10037800070ECF6F060ED06F1200000E9A6EE00EB9
:10038800CF6E000ECE6ECE50CFCF18F0196A18C0BF
:1003980019F0186A18103C6E19503D6E9E909D8099
:1003A800960E156E050E166E000E176EB4EC02F062
:1003B800310ECD6E120001EE00F0C80EEE6AE806AE
:1003C800FDE100EE60F0800EEE6AE806FDE100EE69
:1003D8003FF0080EEE6AE806FDE1479047920001FB
:1003E80054EF01F0400E3E6012D04450010DA00EB3
:1003F800F324D96E000EF420DA6EDF50AE6E442A74
:100408003F0E446402D0000E446E3E2A12009D98AE
:10041800120015C01BF016C01CF008D01BC0D9FF75
:100428001CC0DAFF17C0DFFF1B4A1C2A1906D8A018
:100438001A061928F3E11A28D8B41200EFD79E90AB
:100448003CC001F03DC002F073EC02F03F4A402A84
:10045800405004E1640E3F5CD8A0120062EC02F048
:10046800000E406E000E3F6E1200ACA202D0AC9897
:10047800AC884350010D600EF324D96E000EF420B1
:10048800DA6EAFCFDFFF432A3F0E436402D0000E7F
:10049800436E412A120015501702F3CF19F0F4CF1A
:1004A8001AF015501802F3501A2616501702F35076
:1004B8001A2619C015F01AC016F01200335034105D
:1004C8003510D8B4120001D812000500FA6E335066
:1004D800FD6E3450FE6E3550FF6EFA501200CDA4FA
:1004E80007D0CD900250CF6E01C0CEFFCD80120054
:1004F8000250CF6E01C0CEFF1200C9EC02F09FEC93
:1005080001F099EC02F0C1EC01F02AEC01F08EEC5C
:1005180002F01200080E7C6E800E9C6EB40EA86E5F
:100528008A0EAB6E000E7D6E1200600ED36E000E4A
:100538009B6E000E0F013D6F140E876E1200000EA9
:10054800156EA4B8A8AA02D0010E156E1550120097
:10055800156E9C9A9C98A4A8FED715C0A9FF1200F6
:1005680015C033F016C034F017C035F0120015C0AE
:1005780039F016C03AF017C03BF0120015C036F03B
:1005880016C037F017C038F01200D09E12001200C3
:020000040001F9
:08FFF800AEF4D2FFFFFFFFF39E
:00000001FF
