:0C000000F92F9E2F9F2FA02FA12FA22FC1
:100C0000FF1B0A2E83137F1883170008840A031919
:100C1000FF0A08007F087F398A000408840A031944
:100C2000FF0A820000340034003400340034003401
:100C30000034003400340034003400340034003414
:100C40000034003400340034003400340034003404
:100C500000340034003400340034003400340034F4
:100C600000340034003400340034003400340034E4
:100C700000340034003400340034003400340034D4
:100C800000340034FA346034D734F2346634B63485
:100C9000BE34E034FE34BA3400340034003400345E
:100CA000003400340034EE343E341A347A349E3446
:100CB0008E34003400340034003400340034003406
:100CC0000034003400340034003400340034003484
:100CD0000034003400340034003400340034003474
:100CE0000034003400340034003400340034003464
:100CF0000034003400340034003400340034003454
:100D00000034003400340034003400340034003443
:100D10000034003400340034003400340034003433
:100D20000034003400340034003400340034003423
:100D30000034003400340034003400340034003413
:100D40000034003400340034003400340034003403
:100D500000340034003400340034003400340034F3
:100D600000340034003400340034003400340034E3
:100D700000340034003400340034003400340034D3
:100D800000340034003400340034003400340034C3
:100D900000340034003400340034003400340034B3
:100DA00000340034003400340034003400340034A3
:100DB0000034003400340034003400340034003493
:100DC0000034003400340034003400340034003483
:100DD0000034003400340034003400340034003473
:100DE0000034003400340034003400340034003463
:100DF0000034003400340034003400340034003453
:100E00000034003400340034003400340034003442
:100E10000034003400340034003400340034003432
:100E200000340034F10071080319192F83120313E1
:100E30000715710803191F2F831203130714710874
:100E40000319252F831203130516710803192B2F7D
:100E500083120313851571080319312F83120313AD
:100E6000851671080319372F8312031305177108AC
:100E700003193D2F83120313871471080319432F9D
:100E800083120313851770080319492F8312031364
:100E90008716700803194F2F831203130716700863
:100EA0000319552F831203130616700803195B2FBD
:100EB00083120313861670080319612F831203131C
:100EC000861570080319672F8312031386147008A0
:100ED00003196D2F831203130614700803190800F9
:100EE0008312031306150800831203133503031D31
:100EF0000800B5010130F2007208B407073034066B
:100F00000319B40134089527831203133408053EEE
:100F1000203E840083130008F2007208F0003408B9
:100F2000203E8400000812270800F00083120313FB
:100F300005108510051106138613A42F86170617B2
:100F40000514851405150800700884000530040296
:100F500003189E2F00308A00013004078200080029
:100F600083160313051085100511851105128512CE
:100F700005138513061086100611861106128612B7
:100F8000061386130710871007118715071287129B
:100F900007178717080064008001840A04060319F4
:100FA00000340406CC2F831603139816B027742739
:020FB000D72F39
:0E0FF2008313203084003630CB278301D32FA9
:00000001FF
